:100000000C944D000C946C000C946C000C946C00DF
:100010000C946C000C946C000C946C000C946C00B0
:100020000C946C000C946C000C946C000C946C00A0
:100030000C946C000C946C000C946C000C946C0090
:100040000C946C000C946C000C946C000C946C0080
:100050000C946C000C946C000C946C000C946C0070
:100060000C946C000C946C000C946C000C946C0060
:100070000C946C000C946C000C946C000C946C0050
:100080000C946C000C946C000C946C0013011C011B
:100090002C01550141018601960111241FBECFEFAD
:1000A000D0E4DEBFCDBF11E0A0E0B1E0EEE3F7E0C9
:1000B00000E00BBF02C007900D92A032B107D9F744
:1000C00021E0A0E2B1E001C01D92A832B207E1F741
:1000D0000E94B5010C949D030C940000CF93C82F8F
:1000E0008A3019F48DE00E946E008091C00085FF77
:1000F000FCCFC093C60080E090E0CF910895CF92EE
:10010000DF92EF92FF926B017C0160912001709170
:1001100021018091220190912301A70196010E9463
:10012000CC01882309F458C020E030E0A901C701C0
:10013000B6010E94CC01811106C0E1E9F0E08081A6
:100140008870808305C0E1E9F0E08081836080836E
:1001500028E539E344E75FE3C701B6010E94CC011B
:1001600088233CF48FEF9FEF909399008093980041
:1001700027C020E034E244EF56E4C701B6010E94F4
:100180002B0318162CF4109299001092980018C0A6
:1001900020E030E040E053E4C701B6010E943003A4
:1001A0009B01AC0160E074E284EF9AE40E94D1010B
:1001B0000E94430261507109709399006093980006
:1001C0001092950010929400C0922001D0922101CB
:1001D000E0922201F0922301FF90EF90DF90CF9008
:1001E000089580E4809390008BE08093910060E01C
:1001F00070E0CB010E947F00089510929000109251
:100200009100089580B18095877080932401E091DA
:100210002501F0912601E730F10508F096C0EA5B70
:10022000FF4F0C94C30181E090E0909326018093EE
:1002300025011092270189C0843039F482E090E0D2
:10024000909326018093250180C081E090E09093F7
:1002500026018093250179C0847039F082E090E016
:10026000909326018093250170C081116EC083E0B8
:1002700090E0909326018093250181E080932701EF
:1002800064C0847039F084E090E0909326018093FC
:1002900025015BC0811159C081E090E09093260157
:1002A000809325011092270150C0813079F485E0B8
:1002B00090E090932601809325018091270188305A
:1002C00008F043C08F5F809327013FC0823071F4F4
:1002D00086E090E09093260180932501809127018C
:1002E000823098F18150809327012FC0847039F0BB
:1002F00084E090E0909326018093250126C083E05E
:1003000090E090932601809325011FC0813039F43D
:1003100085E090E0909326018093250116C083E04C
:1003200090E090932601809325010FC0823039F42C
:1003300086E090E0909326018093250106C083E03B
:1003400090E09093260180932501E0912701F0E051
:10035000EE0FFF1FE050FF4F6081718180E090E061
:100360000E9479020E947F00089511B88FEF82B930
:1003700084B915B810922601109225010E94F1004F
:100380000E940201FDCFEE0FFF1F0024001C0BBED8
:100390000790F691E02D09940E94B60208F481E0DE
:1003A00008950E94E5010C94F1020E94EA0258F0BF
:1003B0000E94E30240F029F45F3F29F00C94DA0236
:1003C00051110C9425030C94E0020E94020368F37F
:1003D0009923B1F3552391F3951B550BBB27AA27FE
:1003E00062177307840738F09F5F5F4F220F331F38
:1003F000441FAA1FA9F335D00E2E3AF0E0E832D000
:1004000091505040E695001CCAF72BD0FE2F29D002
:10041000660F771F881FBB1F261737074807AB07D4
:10042000B0E809F0BB0B802DBF01FF2793585F4F49
:100430003AF09E3F510578F00C94DA020C942503B3
:100440005F3FE4F3983ED4F3869577956795B7952B
:10045000F7959F5FC9F7880F911D9695879597F936
:100460000895E1E0660F771F881FBB1F62177307AF
:100470008407BA0720F0621B730B840BBA0BEE1FC4
:1004800088F7E09508950E944A026894B1110C948F
:10049000250308950E940A0388F09F5798F0B92F0A
:1004A0009927B751B0F0E1F0660F771F881F991FA9
:1004B0001AF0BA95C9F714C0B13091F00E94240324
:1004C000B1E008950C942403672F782F8827B85F34
:1004D00039F0B93FCCF3869577956795B395D9F701
:1004E0003EF490958095709561957F4F8F4F9F4F0B
:1004F0000895E89409C097FB3EF490958095709517
:1005000061957F4F8F4F9F4F9923A9F0F92F96E95F
:10051000BB279395F695879577956795B795F111D4
:10052000F8CFFAF4BB0F11F460FF1BC06F5F7F4F71
:100530008F4F9F4F16C0882311F096E911C0772383
:1005400021F09EE8872F762F05C0662371F096E88C
:10055000862F70E060E02AF09A95660F771F881F5B
:10056000DAF7880F9695879597F90895990F0008FF
:10057000550FAA0BE0E8FEEF16161706E807F90775
:10058000C0F012161306E407F50798F0621B730B10
:10059000840B950B39F40A2661F0232B242B252B91
:1005A00021F408950A2609F4A140A6958FEF811D34
:1005B000811D089597F99F6780E870E060E00895D5
:1005C0009FEF80EC089500240A941616170618066B
:1005D0000906089500240A94121613061406050647
:1005E0000895092E0394000C11F4882352F0BB0FD8
:1005F00040F4BF2B11F460FF04C06F5F7F4F8F4F3B
:100600009F4F089557FD9058440F551F59F05F3F75
:1006100071F04795880F97FB991F61F09F3F79F024
:1006200087950895121613061406551FF2CF4695A6
:10063000F1DF08C0161617061806991FF1CF869528
:100640007105610508940895E894BB27662777270C
:10065000CB0197F908950E94B60208F48FEF089530
:100660000E9443030C94F1020E94E30238F00E94BE
:10067000EA0220F0952311F00C94DA020C94E002C7
:1006800011240C9425030E94020370F3959FC1F37B
:10069000950F50E0551F629FF001729FBB27F00D30
:1006A000B11D639FAA27F00DB11DAA1F649F662785
:1006B000B00DA11D661F829F2227B00DA11D621FD4
:1006C000739FB00DA11D621F839FA00D611D221F8E
:1006D000749F3327A00D611D231F849F600D211D72
:1006E000822F762F6A2F11249F5750409AF0F1F0F5
:1006F00088234AF0EE0FFF1FBB1F661F771F881F5E
:1007000091505040A9F79E3F510580F00C94DA02B9
:100710000C9425035F3FE4F3983ED4F386957795D8
:100720006795B795F795E7959F5FC1F7FE2B880F03
:0E073000911D9695879597F90895F894FFCF3F
:10073E0000000501250149015D018801B801ED01A7
:10074E000B0200000002000000006E00000000001E
:00000001FF
