:100000000C9446000C9465000C9465000C946500FB
:100010000C9465000C9465000C9465000C946500CC
:100020000C9465000C9465000C9465000C946500BC
:100030000C9465000C9465000C9465000C946500AC
:100040000C9465000C9465000C9465000C9465009C
:100050000C9465000C9465000C9465000C9465008C
:100060000C9465000C9465000C9465000C9465007C
:100070000C9465000C9465000C9465000C9465006C
:100080000C9465000C9465000C94650011241FBE4F
:10009000CFEFD0E4DEBFCDBF11E0A0E0B1E0E4E1FE
:1000A000F7E000E00BBF02C007900D92AE30B10741
:1000B000D9F721E0AEE0B1E001C01D92A731B2074F
:1000C000E1F70E94A9010C9488030C940000CF93DF
:1000D000C82F8A3019F48DE00E9467008091C0001B
:1000E00085FFFCCFC093C60080E090E0CF910895DB
:1000F000CF92DF92EF92FF926B017C0160910E0133
:1001000070910F018091100190911101A70196014A
:100110000E94B701882309F458C020E030E0A9010B
:10012000C701B6010E94B701811106C0E1E9F0E004
:1001300080818870808305C0E1E9F0E08081836080
:10014000808328E539E344E75FE3C701B6010E94F5
:10015000B70188233CF48FEF9FEF90939900809331
:10016000980027C020E034E244EF56E4C701B6010E
:100170000E94160318162CF4109299001092980001
:1001800018C020E030E040E053E4C701B6010E940F
:100190001B039B01AC0160E074E284EF9AE40E94CF
:1001A000BC010E942E026150710970939900609306
:1001B00098001092950010929400C0920E01D09277
:1001C0000F01E0921001F0921101FF90EF90DF908B
:1001D000CF90089580E4809390008BE0809391000D
:1001E00060E070E0CB010E947800089510929000CA
:1001F00010929100089580B18095877080931401CA
:10020000209115013091160122303105F1F138F4B9
:100210002115310569F021303105A9F065C0233081
:10022000310509F442C02430310509F44EC05CC0E8
:1002300081E090E0909316018093150110921301D4
:100240001092120151C0813039F482E090E0909315
:1002500016018093150148C0823039F483E090E0A4
:1002600090931601809315013FC0843039F484E0E7
:1002700090E0909316018093150136C081E090E0E4
:1002800090931601809315012FC0813039F482E0DC
:1002900090E0909316018093150126C081E090E0D4
:1002A00090931601809315011FC0823039F483E0CA
:1002B00090E0909316018093150116C081E090E0C4
:1002C00090931601809315010FC0843039F484E0B7
:1002D00090E0909316018093150106C081E090E0B4
:1002E000909316018093150180911501909116014C
:1002F0008230910579F018F4019739F01FC08330EE
:10030000910579F00497A1F019C010921301109291
:10031000120114C085E091E09093130180931201C3
:100320000DC085E291E0909313018093120106C005
:1003300089E491E09093130180931201609112017E
:100340007091130180E090E00E9464020E947800A6
:10035000089511B88FEF82B984B915B810921601BB
:10036000109215010E94EA000E94FB00FDCF0E943E
:10037000A10208F481E008950E94D0010C94DC02EF
:100380000E94D50258F00E94CE0240F029F45F3F4F
:1003900029F00C94C50251110C9410030C94CB025B
:1003A0000E94ED0268F39923B1F3552391F3951B55
:1003B000550BBB27AA2762177307840738F09F5F86
:1003C0005F4F220F331F441FAA1FA9F335D00E2EF3
:1003D0003AF0E0E832D091505040E695001CCAF760
:1003E0002BD0FE2F29D0660F771F881FBB1F261723
:1003F00037074807AB07B0E809F0BB0B802DBF01FA
:10040000FF2793585F4F3AF09E3F510578F00C94C8
:10041000C5020C9410035F3FE4F3983ED4F3869535
:1004200077956795B795F7959F5FC9F7880F911DE9
:100430009695879597F90895E1E0660F771F881FD5
:10044000BB1F621773078407BA0720F0621B730B88
:10045000840BBA0BEE1F88F7E09508950E943502D1
:100460006894B1110C94100308950E94F50288F06D
:100470009F5798F0B92F9927B751B0F0E1F0660F68
:10048000771F881F991F1AF0BA95C9F714C0B130A9
:1004900091F00E940F03B1E008950C940F03672FB1
:1004A000782F8827B85F39F0B93FCCF386957795D8
:1004B0006795B395D9F73EF49095809570956195C1
:1004C0007F4F8F4F9F4F0895E89409C097FB3EF4EC
:1004D00090958095709561957F4F8F4F9F4F992391
:1004E000A9F0F92F96E9BB279395F695879577950F
:1004F0006795B795F111F8CFFAF4BB0F11F460FFCF
:100500001BC06F5F7F4F8F4F9F4F16C0882311F026
:1005100096E911C0772321F09EE8872F762F05C03A
:10052000662371F096E8862F70E060E02AF09A95D5
:10053000660F771F881FDAF7880F9695879597F9CA
:100540000895990F0008550FAA0BE0E8FEEF161664
:100550001706E807F907C0F012161306E407F507B7
:1005600098F0621B730B840B950B39F40A2661F02B
:10057000232B242B252B21F408950A2609F4A140CE
:10058000A6958FEF811D811D089597F99F6780E8DB
:1005900070E060E008959FEF80EC089500240A94D5
:1005A0001616170618060906089500240A9412164E
:1005B0001306140605060895092E0394000C11F481
:1005C000882352F0BB0F40F4BF2B11F460FF04C02E
:1005D0006F5F7F4F8F4F9F4F089557FD9058440F87
:1005E000551F59F05F3F71F04795880F97FB991F92
:1005F00061F09F3F79F0879508951216130614064F
:10060000551FF2CF4695F1DF08C0161617061806DB
:10061000991FF1CF86957105610508940895E894B6
:10062000BB2766277727CB0197F908950E94A1027F
:1006300008F48FEF08950E942E030C94DC020E94B0
:10064000CE0238F00E94D50220F0952311F00C94D0
:10065000C5020C94CB0211240C9410030E94ED02ED
:1006600070F3959FC1F3950F50E0551F629FF00105
:10067000729FBB27F00DB11D639FAA27F00DB11D1E
:10068000AA1F649F6627B00DA11D661F829F2227A7
:10069000B00DA11D621F739FB00DA11D621F839F2E
:1006A000A00D611D221F749F3327A00D611D231F04
:1006B000849F600D211D822F762F6A2F11249F5752
:1006C00050409AF0F1F088234AF0EE0FFF1FBB1F55
:1006D000661F771F881F91505040A9F79E3F510514
:1006E00080F00C94C5020C9410035F3FE4F3983E35
:1006F000D4F3869577956795B795F795E7959F5FBE
:10070000C1F7FE2B880F911D9695879597F908954F
:04071000F894FFCF8B
:0E07140000000002000000006700000000006E
:00000001FF
